{
  "_format": "hh-sol-artifact-1",
  "contractName": "Create",
  "sourceName": "contracts/VotingContract.sol",
  "abi": [
    {
      "inputs": [],
      "stateMutability": "nonpayable",
      "type": "constructor"
    },
    {
      "anonymous": false,
      "inputs": [
        {
          "indexed": true,
          "internalType": "uint256",
          "name": "candidateId",
          "type": "uint256"
        },
        {
          "indexed": false,
          "internalType": "string",
          "name": "age",
          "type": "string"
        },
        {
          "indexed": false,
          "internalType": "string",
          "name": "name",
          "type": "string"
        },
        {
          "indexed": false,
          "internalType": "string",
          "name": "image",
          "type": "string"
        },
        {
          "indexed": false,
          "internalType": "uint256",
          "name": "voteCount",
          "type": "uint256"
        },
        {
          "indexed": false,
          "internalType": "address",
          "name": "_address",
          "type": "address"
        },
        {
          "indexed": false,
          "internalType": "string",
          "name": "ipfs",
          "type": "string"
        }
      ],
      "name": "CandidateCreate",
      "type": "event"
    },
    {
      "anonymous": false,
      "inputs": [
        {
          "indexed": true,
          "internalType": "uint256",
          "name": "voterId",
          "type": "uint256"
        },
        {
          "indexed": false,
          "internalType": "string",
          "name": "voter_name",
          "type": "string"
        },
        {
          "indexed": false,
          "internalType": "string",
          "name": "voter_image",
          "type": "string"
        },
        {
          "indexed": false,
          "internalType": "address",
          "name": "voter_address",
          "type": "address"
        },
        {
          "indexed": false,
          "internalType": "uint256",
          "name": "voter_allowed",
          "type": "uint256"
        },
        {
          "indexed": false,
          "internalType": "bool",
          "name": "voter_voted",
          "type": "bool"
        },
        {
          "indexed": false,
          "internalType": "uint256",
          "name": "voter_vote",
          "type": "uint256"
        },
        {
          "indexed": false,
          "internalType": "string",
          "name": "voter_ipfs",
          "type": "string"
        }
      ],
      "name": "VoterCreated",
      "type": "event"
    },
    {
      "inputs": [],
      "name": "_candidateId",
      "outputs": [
        {
          "internalType": "uint256",
          "name": "_value",
          "type": "uint256"
        }
      ],
      "stateMutability": "view",
      "type": "function"
    },
    {
      "inputs": [],
      "name": "_voterId",
      "outputs": [
        {
          "internalType": "uint256",
          "name": "_value",
          "type": "uint256"
        }
      ],
      "stateMutability": "view",
      "type": "function"
    },
    {
      "inputs": [
        {
          "internalType": "uint256",
          "name": "",
          "type": "uint256"
        }
      ],
      "name": "candidateAddress",
      "outputs": [
        {
          "internalType": "address",
          "name": "",
          "type": "address"
        }
      ],
      "stateMutability": "view",
      "type": "function"
    },
    {
      "inputs": [
        {
          "internalType": "address",
          "name": "",
          "type": "address"
        }
      ],
      "name": "candidates",
      "outputs": [
        {
          "internalType": "uint256",
          "name": "candidateId",
          "type": "uint256"
        },
        {
          "internalType": "string",
          "name": "age",
          "type": "string"
        },
        {
          "internalType": "string",
          "name": "name",
          "type": "string"
        },
        {
          "internalType": "string",
          "name": "image",
          "type": "string"
        },
        {
          "internalType": "uint256",
          "name": "voteCount",
          "type": "uint256"
        },
        {
          "internalType": "address",
          "name": "_address",
          "type": "address"
        },
        {
          "internalType": "string",
          "name": "ipfs",
          "type": "string"
        }
      ],
      "stateMutability": "view",
      "type": "function"
    },
    {
      "inputs": [],
      "name": "getCandidate",
      "outputs": [
        {
          "internalType": "address[]",
          "name": "",
          "type": "address[]"
        }
      ],
      "stateMutability": "view",
      "type": "function"
    },
    {
      "inputs": [
        {
          "internalType": "address",
          "name": "_address",
          "type": "address"
        }
      ],
      "name": "getCandidateData",
      "outputs": [
        {
          "internalType": "string",
          "name": "",
          "type": "string"
        },
        {
          "internalType": "string",
          "name": "",
          "type": "string"
        },
        {
          "internalType": "uint256",
          "name": "",
          "type": "uint256"
        },
        {
          "internalType": "string",
          "name": "",
          "type": "string"
        },
        {
          "internalType": "uint256",
          "name": "",
          "type": "uint256"
        },
        {
          "internalType": "string",
          "name": "",
          "type": "string"
        },
        {
          "internalType": "address",
          "name": "",
          "type": "address"
        }
      ],
      "stateMutability": "view",
      "type": "function"
    },
    {
      "inputs": [],
      "name": "getCandidateLength",
      "outputs": [
        {
          "internalType": "uint256",
          "name": "",
          "type": "uint256"
        }
      ],
      "stateMutability": "view",
      "type": "function"
    },
    {
      "inputs": [],
      "name": "getVotedVotersList",
      "outputs": [
        {
          "internalType": "address[]",
          "name": "",
          "type": "address[]"
        }
      ],
      "stateMutability": "view",
      "type": "function"
    },
    {
      "inputs": [
        {
          "internalType": "address",
          "name": "_address",
          "type": "address"
        }
      ],
      "name": "getVoterData",
      "outputs": [
        {
          "internalType": "uint256",
          "name": "",
          "type": "uint256"
        },
        {
          "internalType": "string",
          "name": "",
          "type": "string"
        },
        {
          "internalType": "string",
          "name": "",
          "type": "string"
        },
        {
          "internalType": "address",
          "name": "",
          "type": "address"
        },
        {
          "internalType": "string",
          "name": "",
          "type": "string"
        },
        {
          "internalType": "uint256",
          "name": "",
          "type": "uint256"
        },
        {
          "internalType": "bool",
          "name": "",
          "type": "bool"
        }
      ],
      "stateMutability": "view",
      "type": "function"
    },
    {
      "inputs": [],
      "name": "getVoterLength",
      "outputs": [
        {
          "internalType": "uint256",
          "name": "",
          "type": "uint256"
        }
      ],
      "stateMutability": "view",
      "type": "function"
    },
    {
      "inputs": [],
      "name": "getVoterList",
      "outputs": [
        {
          "internalType": "address[]",
          "name": "",
          "type": "address[]"
        }
      ],
      "stateMutability": "view",
      "type": "function"
    },
    {
      "inputs": [
        {
          "internalType": "address",
          "name": "_address",
          "type": "address"
        },
        {
          "internalType": "string",
          "name": "_age",
          "type": "string"
        },
        {
          "internalType": "string",
          "name": "_name",
          "type": "string"
        },
        {
          "internalType": "string",
          "name": "_image",
          "type": "string"
        },
        {
          "internalType": "string",
          "name": "_ipfs",
          "type": "string"
        }
      ],
      "name": "setCandidate",
      "outputs": [],
      "stateMutability": "nonpayable",
      "type": "function"
    },
    {
      "inputs": [
        {
          "internalType": "address",
          "name": "_candidateAddress",
          "type": "address"
        },
        {
          "internalType": "uint256",
          "name": "_candidateVoteId",
          "type": "uint256"
        }
      ],
      "name": "vote",
      "outputs": [],
      "stateMutability": "nonpayable",
      "type": "function"
    },
    {
      "inputs": [
        {
          "internalType": "uint256",
          "name": "",
          "type": "uint256"
        }
      ],
      "name": "votedVoters",
      "outputs": [
        {
          "internalType": "address",
          "name": "",
          "type": "address"
        }
      ],
      "stateMutability": "view",
      "type": "function"
    },
    {
      "inputs": [
        {
          "internalType": "address",
          "name": "_address",
          "type": "address"
        },
        {
          "internalType": "string",
          "name": "_name",
          "type": "string"
        },
        {
          "internalType": "string",
          "name": "_image",
          "type": "string"
        },
        {
          "internalType": "string",
          "name": "_ipfs",
          "type": "string"
        }
      ],
      "name": "voterRight",
      "outputs": [],
      "stateMutability": "nonpayable",
      "type": "function"
    },
    {
      "inputs": [
        {
          "internalType": "address",
          "name": "",
          "type": "address"
        }
      ],
      "name": "voters",
      "outputs": [
        {
          "internalType": "uint256",
          "name": "voter_voterId",
          "type": "uint256"
        },
        {
          "internalType": "string",
          "name": "voter_name",
          "type": "string"
        },
        {
          "internalType": "string",
          "name": "voter_image",
          "type": "string"
        },
        {
          "internalType": "address",
          "name": "voter_address",
          "type": "address"
        },
        {
          "internalType": "uint256",
          "name": "voter_allowed",
          "type": "uint256"
        },
        {
          "internalType": "bool",
          "name": "voter_voted",
          "type": "bool"
        },
        {
          "internalType": "uint256",
          "name": "voter_vote",
          "type": "uint256"
        },
        {
          "internalType": "string",
          "name": "voter_ipfs",
          "type": "string"
        }
      ],
      "stateMutability": "view",
      "type": "function"
    },
    {
      "inputs": [
        {
          "internalType": "uint256",
          "name": "",
          "type": "uint256"
        }
      ],
      "name": "votersAddress",
      "outputs": [
        {
          "internalType": "address",
          "name": "",
          "type": "address"
        }
      ],
      "stateMutability": "view",
      "type": "function"
    },
    {
      "inputs": [],
      "name": "votingOrganizer",
      "outputs": [
        {
          "internalType": "address",
          "name": "",
          "type": "address"
        }
      ],
      "stateMutability": "view",
      "type": "function"
    }
  ],
  "bytecode": "0x608060405234801561001057600080fd5b5033600260006101000a81548173ffffffffffffffffffffffffffffffffffffffff021916908373ffffffffffffffffffffffffffffffffffffffff1602179055506128ce806100616000396000f3fe608060405234801561001057600080fd5b50600436106101165760003560e01c80637831ffb3116100a2578063a738896711610071578063a738896714610334578063b28d92ae14610352578063b9be315214610370578063c91ec7121461038e578063f7522a83146103aa57610116565b80637831ffb3146102615780638ab66a90146102915780638fb4cd80146102c7578063a3ec138d146102fd57610116565b80633a88251a116100e95780633a88251a146101a957806343242daa146101d95780635cc48aa7146102095780635f74bbde1461022757806370218b851461024357610116565b80630361419e1461011b57806305ad45a41461013757806313182dce146101555780632a466ac714610173575b600080fd5b61013560048036038101906101309190611b65565b6103c8565b005b61013f61062a565b60405161014c9190611c39565b60405180910390f35b61015d610637565b60405161016a9190611d12565b60405180910390f35b61018d60048036038101906101889190611d34565b6106c5565b6040516101a09796959493929190611def565b60405180910390f35b6101c360048036038101906101be9190611ea6565b610b0c565b6040516101d09190611ed3565b60405180910390f35b6101f360048036038101906101ee9190611ea6565b610b4b565b6040516102009190611ed3565b60405180910390f35b610211610b8a565b60405161021e9190611ed3565b60405180910390f35b610241600480360381019061023c9190611eee565b610bb0565b005b61024b610d77565b6040516102589190611d12565b60405180910390f35b61027b60048036038101906102769190611ea6565b610e05565b6040516102889190611ed3565b60405180910390f35b6102ab60048036038101906102a69190611d34565b610e44565b6040516102be9796959493929190611f2e565b60405180910390f35b6102e160048036038101906102dc9190611d34565b6110c6565b6040516102f49796959493929190611fd4565b60405180910390f35b61031760048036038101906103129190611d34565b61148e565b60405161032b989796959493929190612058565b60405180910390f35b61033c61169b565b6040516103499190611c39565b60405180910390f35b61035a6116a7565b6040516103679190611d12565b60405180910390f35b610378611735565b6040516103859190611c39565b60405180910390f35b6103a860048036038101906103a391906120eb565b611741565b005b6103b261197c565b6040516103bf9190611c39565b60405180910390f35b3373ffffffffffffffffffffffffffffffffffffffff16600260009054906101000a900473ffffffffffffffffffffffffffffffffffffffff1673ffffffffffffffffffffffffffffffffffffffff1614610458576040517f08c379a000000000000000000000000000000000000000000000000000000000815260040161044f90612248565b60405180910390fd5b6104626000611989565b600061046e600061199f565b90506000600760008773ffffffffffffffffffffffffffffffffffffffff1673ffffffffffffffffffffffffffffffffffffffff168152602001908152602001600020905060008160040154146104c457600080fd5b60018160040181905550848160010190816104df9190612474565b50838160020190816104f19190612474565b50858160030160006101000a81548173ffffffffffffffffffffffffffffffffffffffff021916908373ffffffffffffffffffffffffffffffffffffffff1602179055508181600001819055506103e881600601819055508281600701908161055a9190612474565b506006869080600181540180825580915050600190039060005260206000200160009091909190916101000a81548173ffffffffffffffffffffffffffffffffffffffff021916908373ffffffffffffffffffffffffffffffffffffffff16021790555080600001547ff5f39971dd62d9929e3a9feaa6bb77fe7c7da0001babff8a65a7e51ad0201c1986868985600401548660050160009054906101000a900460ff1687600601548860070160405161061a97969594939291906125ca565b60405180910390a2505050505050565b6000600680549050905090565b606060058054806020026020016040519081016040528092919081815260200182805480156106bb57602002820191906000526020600020905b8160009054906101000a900473ffffffffffffffffffffffffffffffffffffffff1673ffffffffffffffffffffffffffffffffffffffff1681526020019060010190808311610671575b5050505050905090565b60608060006060600060606000600460008973ffffffffffffffffffffffffffffffffffffffff1673ffffffffffffffffffffffffffffffffffffffff168152602001908152602001600020600101600460008a73ffffffffffffffffffffffffffffffffffffffff1673ffffffffffffffffffffffffffffffffffffffff168152602001908152602001600020600201600460008b73ffffffffffffffffffffffffffffffffffffffff1673ffffffffffffffffffffffffffffffffffffffff16815260200190815260200160002060000154600460008c73ffffffffffffffffffffffffffffffffffffffff1673ffffffffffffffffffffffffffffffffffffffff168152602001908152602001600020600301600460008d73ffffffffffffffffffffffffffffffffffffffff1673ffffffffffffffffffffffffffffffffffffffff16815260200190815260200160002060040154600460008e73ffffffffffffffffffffffffffffffffffffffff1673ffffffffffffffffffffffffffffffffffffffff168152602001908152602001600020600601600460008f73ffffffffffffffffffffffffffffffffffffffff1673ffffffffffffffffffffffffffffffffffffffff16815260200190815260200160002060050160009054906101000a900473ffffffffffffffffffffffffffffffffffffffff168680546108cf90612297565b80601f01602080910402602001604051908101604052809291908181526020018280546108fb90612297565b80156109485780601f1061091d57610100808354040283529160200191610948565b820191906000526020600020905b81548152906001019060200180831161092b57829003601f168201915b5050505050965085805461095b90612297565b80601f016020809104026020016040519081016040528092919081815260200182805461098790612297565b80156109d45780601f106109a9576101008083540402835291602001916109d4565b820191906000526020600020905b8154815290600101906020018083116109b757829003601f168201915b505050505095508380546109e790612297565b80601f0160208091040260200160405190810160405280929190818152602001828054610a1390612297565b8015610a605780601f10610a3557610100808354040283529160200191610a60565b820191906000526020600020905b815481529060010190602001808311610a4357829003601f168201915b50505050509350818054610a7390612297565b80601f0160208091040260200160405190810160405280929190818152602001828054610a9f90612297565b8015610aec5780601f10610ac157610100808354040283529160200191610aec565b820191906000526020600020905b815481529060010190602001808311610acf57829003601f168201915b505050505091509650965096509650965096509650919395979092949650565b60038181548110610b1c57600080fd5b906000526020600020016000915054906101000a900473ffffffffffffffffffffffffffffffffffffffff1681565b60068181548110610b5b57600080fd5b906000526020600020016000915054906101000a900473ffffffffffffffffffffffffffffffffffffffff1681565b600260009054906101000a900473ffffffffffffffffffffffffffffffffffffffff1681565b6000600760003373ffffffffffffffffffffffffffffffffffffffff1673ffffffffffffffffffffffffffffffffffffffff16815260200190815260200160002090508060050160009054906101000a900460ff1615610c45576040517f08c379a0000000000000000000000000000000000000000000000000000000008152600401610c3c9061269a565b60405180910390fd5b6000816004015403610c8c576040517f08c379a0000000000000000000000000000000000000000000000000000000008152600401610c8390612706565b60405180910390fd5b60018160050160006101000a81548160ff0219169083151502179055508181600601819055506005339080600181540180825580915050600190039060005260206000200160009091909190916101000a81548173ffffffffffffffffffffffffffffffffffffffff021916908373ffffffffffffffffffffffffffffffffffffffff1602179055508060040154600460008573ffffffffffffffffffffffffffffffffffffffff1673ffffffffffffffffffffffffffffffffffffffff1681526020019081526020016000206004016000828254610d6b9190612755565b92505081905550505050565b60606003805480602002602001604051908101604052809291908181526020018280548015610dfb57602002820191906000526020600020905b8160009054906101000a900473ffffffffffffffffffffffffffffffffffffffff1673ffffffffffffffffffffffffffffffffffffffff1681526020019060010190808311610db1575b5050505050905090565b60058181548110610e1557600080fd5b906000526020600020016000915054906101000a900473ffffffffffffffffffffffffffffffffffffffff1681565b6004602052806000526040600020600091509050806000015490806001018054610e6d90612297565b80601f0160208091040260200160405190810160405280929190818152602001828054610e9990612297565b8015610ee65780601f10610ebb57610100808354040283529160200191610ee6565b820191906000526020600020905b815481529060010190602001808311610ec957829003601f168201915b505050505090806002018054610efb90612297565b80601f0160208091040260200160405190810160405280929190818152602001828054610f2790612297565b8015610f745780601f10610f4957610100808354040283529160200191610f74565b820191906000526020600020905b815481529060010190602001808311610f5757829003601f168201915b505050505090806003018054610f8990612297565b80601f0160208091040260200160405190810160405280929190818152602001828054610fb590612297565b80156110025780601f10610fd757610100808354040283529160200191611002565b820191906000526020600020905b815481529060010190602001808311610fe557829003601f168201915b5050505050908060040154908060050160009054906101000a900473ffffffffffffffffffffffffffffffffffffffff169080600601805461104390612297565b80601f016020809104026020016040519081016040528092919081815260200182805461106f90612297565b80156110bc5780601f10611091576101008083540402835291602001916110bc565b820191906000526020600020905b81548152906001019060200180831161109f57829003601f168201915b5050505050905087565b600060608060006060600080600760008973ffffffffffffffffffffffffffffffffffffffff1673ffffffffffffffffffffffffffffffffffffffff16815260200190815260200160002060000154600760008a73ffffffffffffffffffffffffffffffffffffffff1673ffffffffffffffffffffffffffffffffffffffff168152602001908152602001600020600101600760008b73ffffffffffffffffffffffffffffffffffffffff1673ffffffffffffffffffffffffffffffffffffffff168152602001908152602001600020600201600760008c73ffffffffffffffffffffffffffffffffffffffff1673ffffffffffffffffffffffffffffffffffffffff16815260200190815260200160002060030160009054906101000a900473ffffffffffffffffffffffffffffffffffffffff16600760008d73ffffffffffffffffffffffffffffffffffffffff1673ffffffffffffffffffffffffffffffffffffffff168152602001908152602001600020600701600760008e73ffffffffffffffffffffffffffffffffffffffff1673ffffffffffffffffffffffffffffffffffffffff16815260200190815260200160002060040154600760008f73ffffffffffffffffffffffffffffffffffffffff1673ffffffffffffffffffffffffffffffffffffffff16815260200190815260200160002060050160009054906101000a900460ff168580546112dd90612297565b80601f016020809104026020016040519081016040528092919081815260200182805461130990612297565b80156113565780601f1061132b57610100808354040283529160200191611356565b820191906000526020600020905b81548152906001019060200180831161133957829003601f168201915b5050505050955084805461136990612297565b80601f016020809104026020016040519081016040528092919081815260200182805461139590612297565b80156113e25780601f106113b7576101008083540402835291602001916113e2565b820191906000526020600020905b8154815290600101906020018083116113c557829003601f168201915b505050505094508280546113f590612297565b80601f016020809104026020016040519081016040528092919081815260200182805461142190612297565b801561146e5780601f106114435761010080835404028352916020019161146e565b820191906000526020600020905b81548152906001019060200180831161145157829003601f168201915b505050505092509650965096509650965096509650919395979092949650565b60076020528060005260406000206000915090508060000154908060010180546114b790612297565b80601f01602080910402602001604051908101604052809291908181526020018280546114e390612297565b80156115305780601f1061150557610100808354040283529160200191611530565b820191906000526020600020905b81548152906001019060200180831161151357829003601f168201915b50505050509080600201805461154590612297565b80601f016020809104026020016040519081016040528092919081815260200182805461157190612297565b80156115be5780601f10611593576101008083540402835291602001916115be565b820191906000526020600020905b8154815290600101906020018083116115a157829003601f168201915b5050505050908060030160009054906101000a900473ffffffffffffffffffffffffffffffffffffffff16908060040154908060050160009054906101000a900460ff169080600601549080600701805461161890612297565b80601f016020809104026020016040519081016040528092919081815260200182805461164490612297565b80156116915780601f1061166657610100808354040283529160200191611691565b820191906000526020600020905b81548152906001019060200180831161167457829003601f168201915b5050505050905088565b60018060000154905081565b6060600680548060200260200160405190810160405280929190818152602001828054801561172b57602002820191906000526020600020905b8160009054906101000a900473ffffffffffffffffffffffffffffffffffffffff1673ffffffffffffffffffffffffffffffffffffffff16815260200190600101908083116116e1575b5050505050905090565b60008060000154905081565b3373ffffffffffffffffffffffffffffffffffffffff16600260009054906101000a900473ffffffffffffffffffffffffffffffffffffffff1673ffffffffffffffffffffffffffffffffffffffff16146117d1576040517f08c379a00000000000000000000000000000000000000000000000000000000081526004016117c8906127fb565b60405180910390fd5b6117db6001611989565b60006117e7600161199f565b90506000600460008873ffffffffffffffffffffffffffffffffffffffff1673ffffffffffffffffffffffffffffffffffffffff16815260200190815260200160002090508581600101908161183d9190612474565b508481600201908161184f9190612474565b50838160030190816118619190612474565b50828160060190816118739190612474565b50818160000181905550868160050160006101000a81548173ffffffffffffffffffffffffffffffffffffffff021916908373ffffffffffffffffffffffffffffffffffffffff160217905550600081600401819055506003879080600181540180825580915050600190039060005260206000200160009091909190916101000a81548173ffffffffffffffffffffffffffffffffffffffff021916908373ffffffffffffffffffffffffffffffffffffffff160217905550817fd297f12b256bb8485a6013fb5e302017018123e99a0ebb20756c09e1707b4b9087878785600401548c8960405161196b9695949392919061281b565b60405180910390a250505050505050565b6000600380549050905090565b6001816000016000828254019250508190555050565b600081600001549050919050565b6000604051905090565b600080fd5b600080fd5b600073ffffffffffffffffffffffffffffffffffffffff82169050919050565b60006119ec826119c1565b9050919050565b6119fc816119e1565b8114611a0757600080fd5b50565b600081359050611a19816119f3565b92915050565b600080fd5b600080fd5b6000601f19601f8301169050919050565b7f4e487b7100000000000000000000000000000000000000000000000000000000600052604160045260246000fd5b611a7282611a29565b810181811067ffffffffffffffff82111715611a9157611a90611a3a565b5b80604052505050565b6000611aa46119ad565b9050611ab08282611a69565b919050565b600067ffffffffffffffff821115611ad057611acf611a3a565b5b611ad982611a29565b9050602081019050919050565b82818337600083830152505050565b6000611b08611b0384611ab5565b611a9a565b905082815260208101848484011115611b2457611b23611a24565b5b611b2f848285611ae6565b509392505050565b600082601f830112611b4c57611b4b611a1f565b5b8135611b5c848260208601611af5565b91505092915050565b60008060008060808587031215611b7f57611b7e6119b7565b5b6000611b8d87828801611a0a565b945050602085013567ffffffffffffffff811115611bae57611bad6119bc565b5b611bba87828801611b37565b935050604085013567ffffffffffffffff811115611bdb57611bda6119bc565b5b611be787828801611b37565b925050606085013567ffffffffffffffff811115611c0857611c076119bc565b5b611c1487828801611b37565b91505092959194509250565b6000819050919050565b611c3381611c20565b82525050565b6000602082019050611c4e6000830184611c2a565b92915050565b600081519050919050565b600082825260208201905092915050565b6000819050602082019050919050565b611c89816119e1565b82525050565b6000611c9b8383611c80565b60208301905092915050565b6000602082019050919050565b6000611cbf82611c54565b611cc98185611c5f565b9350611cd483611c70565b8060005b83811015611d05578151611cec8882611c8f565b9750611cf783611ca7565b925050600181019050611cd8565b5085935050505092915050565b60006020820190508181036000830152611d2c8184611cb4565b905092915050565b600060208284031215611d4a57611d496119b7565b5b6000611d5884828501611a0a565b91505092915050565b600081519050919050565b600082825260208201905092915050565b60005b83811015611d9b578082015181840152602081019050611d80565b60008484015250505050565b6000611db282611d61565b611dbc8185611d6c565b9350611dcc818560208601611d7d565b611dd581611a29565b840191505092915050565b611de9816119e1565b82525050565b600060e0820190508181036000830152611e09818a611da7565b90508181036020830152611e1d8189611da7565b9050611e2c6040830188611c2a565b8181036060830152611e3e8187611da7565b9050611e4d6080830186611c2a565b81810360a0830152611e5f8185611da7565b9050611e6e60c0830184611de0565b98975050505050505050565b611e8381611c20565b8114611e8e57600080fd5b50565b600081359050611ea081611e7a565b92915050565b600060208284031215611ebc57611ebb6119b7565b5b6000611eca84828501611e91565b91505092915050565b6000602082019050611ee86000830184611de0565b92915050565b60008060408385031215611f0557611f046119b7565b5b6000611f1385828601611a0a565b9250506020611f2485828601611e91565b9150509250929050565b600060e082019050611f43600083018a611c2a565b8181036020830152611f558189611da7565b90508181036040830152611f698188611da7565b90508181036060830152611f7d8187611da7565b9050611f8c6080830186611c2a565b611f9960a0830185611de0565b81810360c0830152611fab8184611da7565b905098975050505050505050565b60008115159050919050565b611fce81611fb9565b82525050565b600060e082019050611fe9600083018a611c2a565b8181036020830152611ffb8189611da7565b9050818103604083015261200f8188611da7565b905061201e6060830187611de0565b81810360808301526120308186611da7565b905061203f60a0830185611c2a565b61204c60c0830184611fc5565b98975050505050505050565b60006101008201905061206e600083018b611c2a565b8181036020830152612080818a611da7565b905081810360408301526120948189611da7565b90506120a36060830188611de0565b6120b06080830187611c2a565b6120bd60a0830186611fc5565b6120ca60c0830185611c2a565b81810360e08301526120dc8184611da7565b90509998505050505050505050565b600080600080600060a08688031215612107576121066119b7565b5b600061211588828901611a0a565b955050602086013567ffffffffffffffff811115612136576121356119bc565b5b61214288828901611b37565b945050604086013567ffffffffffffffff811115612163576121626119bc565b5b61216f88828901611b37565b935050606086013567ffffffffffffffff8111156121905761218f6119bc565b5b61219c88828901611b37565b925050608086013567ffffffffffffffff8111156121bd576121bc6119bc565b5b6121c988828901611b37565b9150509295509295909350565b7f596f752068617665206e6f20726967687420746f2070726f766964652061757460008201527f686f72697a6174696f6e20666f7220766f746500000000000000000000000000602082015250565b6000612232603383611d6c565b915061223d826121d6565b604082019050919050565b6000602082019050818103600083015261226181612225565b9050919050565b7f4e487b7100000000000000000000000000000000000000000000000000000000600052602260045260246000fd5b600060028204905060018216806122af57607f821691505b6020821081036122c2576122c1612268565b5b50919050565b60008190508160005260206000209050919050565b60006020601f8301049050919050565b600082821b905092915050565b60006008830261232a7fffffffffffffffffffffffffffffffffffffffffffffffffffffffffffffffff826122ed565b61233486836122ed565b95508019841693508086168417925050509392505050565b6000819050919050565b600061237161236c61236784611c20565b61234c565b611c20565b9050919050565b6000819050919050565b61238b83612356565b61239f61239782612378565b8484546122fa565b825550505050565b600090565b6123b46123a7565b6123bf818484612382565b505050565b5b818110156123e3576123d86000826123ac565b6001810190506123c5565b5050565b601f821115612428576123f9816122c8565b612402846122dd565b81016020851015612411578190505b61242561241d856122dd565b8301826123c4565b50505b505050565b600082821c905092915050565b600061244b6000198460080261242d565b1980831691505092915050565b6000612464838361243a565b9150826002028217905092915050565b61247d82611d61565b67ffffffffffffffff81111561249657612495611a3a565b5b6124a08254612297565b6124ab8282856123e7565b600060209050601f8311600181146124de57600084156124cc578287015190505b6124d68582612458565b86555061253e565b601f1984166124ec866122c8565b60005b82811015612514578489015182556001820191506020850194506020810190506124ef565b86831015612531578489015161252d601f89168261243a565b8355505b6001600288020188555050505b505050505050565b6000815461255381612297565b61255d8186611d6c565b94506001821660008114612578576001811461258e576125c1565b60ff1983168652811515602002860193506125c1565b612597856122c8565b60005b838110156125b95781548189015260018201915060208101905061259a565b808801955050505b50505092915050565b600060e08201905081810360008301526125e4818a611da7565b905081810360208301526125f88189611da7565b90506126076040830188611de0565b6126146060830187611c2a565b6126216080830186611fc5565b61262e60a0830185611c2a565b81810360c08301526126408184612546565b905098975050505050505050565b7f596f7520616c726561647920766f746564000000000000000000000000000000600082015250565b6000612684601183611d6c565b915061268f8261264e565b602082019050919050565b600060208201905081810360008301526126b381612677565b9050919050565b7f596f752068617665206e6f20726967687420746f20766f746500000000000000600082015250565b60006126f0601983611d6c565b91506126fb826126ba565b602082019050919050565b6000602082019050818103600083015261271f816126e3565b9050919050565b7f4e487b7100000000000000000000000000000000000000000000000000000000600052601160045260246000fd5b600061276082611c20565b915061276b83611c20565b925082820190508082111561278357612782612726565b5b92915050565b7f4f6e6c79206f7267616e697a65722063616e206372656174652063616e64696460008201527f6174650000000000000000000000000000000000000000000000000000000000602082015250565b60006127e5602383611d6c565b91506127f082612789565b604082019050919050565b60006020820190508181036000830152612814816127d8565b9050919050565b600060c08201905081810360008301526128358189611da7565b905081810360208301526128498188611da7565b9050818103604083015261285d8187611da7565b905061286c6060830186611c2a565b6128796080830185611de0565b81810360a083015261288b8184611da7565b905097965050505050505056fea2646970667358221220e8c2fbbe815707d0c7f0ce620f13300ee933d5239be76af5cc236adfab407df964736f6c63430008120033",
  "linkReferences": {},
  "deployedLinkReferences": {}
}